:100000000C945D000C9485000C9485000C94850084
:100010000C9485000C9485000C9485000C9485004C
:100020000C9485000C9485000C9485000C941904A4
:100030000C9485000C9485000C9485000C9485002C
:100040000C94CF030C9485000C949D030C947703BF
:100050000C9485000C9485000C9485000C9485000C
:100060000C9485000C94850000000008000201003B
:100070000003040700000000000000000000000072
:10008000250028002B0000000000240027002A0083
:10009000040404040404040402020202020203032E
:1000A0000303030301020408102040800102040836
:1000B0001020010204081020D50411241FBECFEF28
:1000C000D8E0DEBFCDBF11E0A0E0B1E0EAEFF1E1A2
:1000D00002C005900D92AA36B107D9F722E0AAE630
:1000E000B1E001C01D92AB38B207E1F710E0CDE5F9
:1000F000D0E004C02197FE010E94EE08CC35D10764
:10010000C9F70E944C050C94FB080C94000090E089
:10011000FC01EC55FF4F249180579F4FFC018491C7
:10012000882399F090E0880F991FFC01EA57FF4F50
:10013000A591B491FC01E458FF4F859194918FB73C
:10014000F894EC91E22BEC938FBF0895AF92BF929D
:10015000CF92DF92EF92FF920F931F93CF93DF9393
:100160006C017B018B01040F151FEB015E01AE18C2
:10017000BF08C017D10759F06991D601ED91FC91E4
:100180000190F081E02DC6010995892B79F7C50111
:10019000DF91CF911F910F91FF90EF90DF90CF9063
:1001A000BF90AF900895FC01538D448D252F30E012
:1001B000842F90E0821B930B541710F0CF96089574
:1001C00001970895FC01918D828D981761F0A28DA1
:1001D000AE0FBF2FB11D5D968C91928D9F5F9F7367
:1001E000928F90E008958FEF9FEF0895FC01918D1D
:1001F000828D981731F0828DE80FF11D858D90E08A
:1002000008958FEF9FEF0895FC01918D228D892F26
:1002100090E0805C9F4F821B91098F73992708950E
:1002200081EC91E00E94040121E0892B09F420E097
:10023000822F089580E090E0892B29F00E94100120
:1002400081110C9400000895FC01A48DA80FB92F12
:10025000B11DA35ABF4F2C91848D90E001968F73EE
:100260009927848FA689B7892C93A089B1898C910D
:10027000837080648C93938D848D981306C002885C
:10028000F389E02D80818F7D80830895EF92FF9226
:100290000F931F93CF93DF93EC0181E0888F9B8DA9
:1002A0008C8D98131AC0E889F989808185FF15C063
:1002B0009FB7F894EE89FF896083E889F989808186
:1002C0008370806480839FBF81E090E0DF91CF9155
:1002D0001F910F91FF90EF900895F62E0B8D10E077
:1002E0000F5F1F4F0F731127E02E8C8D8E110CC0E6
:1002F0000FB607FCFACFE889F989808185FFF5CF31
:10030000CE010E942401F1CFEB8DEC0FFD2FF11DEA
:10031000E35AFF4FF0829FB7F8940B8FEA89FB896D
:1003200080818062CFCFCF93DF93EC01888D8823CB
:10033000B9F0AA89BB89E889F9898C9185FD03C048
:10034000808186FD0DC00FB607FCF7CF8C9185FF2D
:10035000F2CF808185FFEDCFCE010E942401E9CF4D
:10036000DF91CF91089590E0FC01E859FF4F24916F
:10037000FC01EC55FF4F3491FC01E057FF4FE49135
:10038000EE23C9F0222339F0233001F1A8F4213003
:1003900019F1223029F1F0E0EE0FFF1FE458FF4F72
:1003A000A591B4918FB7F894EC91611126C0309566
:1003B0003E233C938FBF08952730A9F02830C9F021
:1003C000243049F7809180008F7D03C080918000A8
:1003D0008F7780938000DFCF84B58F7784BDDBCFAC
:1003E00084B58F7DFBCF8091B0008F778093B00074
:1003F000D2CF8091B0008F7DF9CF3E2BDACF3FB7BF
:10040000F8948091700190917101A0917201B09166
:10041000730126B5A89B05C02F3F19F00196A11DB9
:10042000B11D3FBFBA2FA92F982F8827BC01CD013E
:10043000620F711D811D911D42E0660F771F881F9D
:10044000991F4A95D1F708958F929F92AF92BF92CC
:10045000CF92DF92EF92FF926B017C010E94FF012D
:100460004B015C01C114D104E104F104B9F00E9414
:10047000FF01681979098A099B09683E7340810563
:10048000910580F321E0C21AD108E108F10888EE55
:10049000880E83E0981EA11CB11CE4CFFF90EF9062
:1004A000DF90CF90BF90AF909F908F900895CF92A4
:1004B000DF92EF92FF92CF93DF93EC01603282E004
:1004C0007807CCF5653B710514F064EB70E0898129
:1004D00028E830E0281B310987FD3395220F331FB0
:1004E000220F331F6901330FEE08FF088A8128E5C8
:1004F00032E0281B310987FD3395220F331F220F6D
:10050000331F032E000C440B550B2C193D094E09CB
:100510005F09DB0177FF02C0B0E0A0E00E94A908FC
:1005200024EB30E040E050E00E947F08C20ED31E72
:10053000E41EF51EB601E881EC3070F5298188E8EB
:1005400090E0821B910927FD9395880F991F880FD2
:10055000991F681779077CF02A8188E592E0821B51
:10056000910927FD9395880F991F880F991F681788
:1005700079070CF4CB010297880F991F4FB7F894B5
:100580002E2F30E0F901EE0FFF1FE20FF31FE25AAA
:10059000FD4F928381834FBFDF91CF91FF90EF900A
:1005A000DF90CF900895892B79F41092800082E03B
:1005B000809381001092850010928400B19A8091FE
:1005C0006F00826080936F000895FC01019000200D
:1005D000E9F73197AF01481B590BBC0181EC91E061
:1005E0000C94A6008F929F92AF92BF92CF92DF920F
:1005F000EF92FF920F931F93CF93DF93CDB7DEB7A8
:10060000A1970FB6F894DEBF0FBECDBF6C01990F56
:10061000EE08FF08F7FE47C06DE281EC91E00E9412
:1006200046018C0122273327A9012C193D094E09C7
:100630005F0919A2CE0181967C019AE0892E912C46
:10064000A12CB12CCA01B901A50194010E94B108E5
:10065000605DF70162937F01211531054105510568
:1006600089F790E080E0309719F0CF010E94E50211
:10067000080F191F8CE191E00E94E502800F911F85
:10068000A1960FB6F894DEBF0FBECDBFDF91CF911C
:100690001F910F91FF90EF90DF90CF90BF90AF90A0
:1006A0009F908F900895A701960119A28E010F5D6A
:1006B0001F4F8AE0C82ED12CE12CF12CCA01B901C0
:1006C000A70196010E94B108605DF80162938F0155
:1006D000211531054105510589F7309729F0CF01E2
:1006E0000E94E5028C01C6CF10E000E0C3CF1F924C
:1006F0000F920FB60F9211242F933F934F935F9356
:100700006F937F938F939F93AF93BF93EF93FF93D9
:1007100081EC91E00E942401FF91EF91BF91AF9194
:100720009F918F917F916F915F914F913F912F9109
:100730000F900FBE0F901F9018951F920F920FB63B
:100740000F9211242F938F939F93EF93FF93E09138
:10075000D101F091D2018081E091D701F091D801CF
:1007600082FD1BC090818091DA018F5F8F73209191
:10077000DB01821741F0E091DA01F0E0EF53FE4F28
:10078000958F8093DA01FF91EF919F918F912F9137
:100790000F900FBE0F901F9018958081F4CF1F927D
:1007A0000F920FB60F9211242F933F938F939F9325
:1007B000AF93BF9380916C0190916D01A0916E01F8
:1007C000B0916F0130916B0123E0230F2D3758F565
:1007D0000196A11DB11D20936B0180936C01909334
:1007E0006D01A0936E01B0936F01809170019091A3
:1007F0007101A0917201B09173010196A11DB11D0B
:100800008093700190937101A0937201B093730172
:10081000BF91AF919F918F913F912F910F900FBEFC
:100820000F901F90189526E8230F0296A11DB11D69
:10083000D2CF1F920F920FB60F9211242F933F9396
:100840004F935F936F937F938F939F93AF93BF93D8
:10085000CF93DF93EF93FF9380916A01C09182025F
:10086000D0E087FF24C01092850010928400809110
:100870006A018F5F80936A0180916A01082E000CE3
:10088000990B8C179D0724F480916A018C30C4F178
:100890008091840090918500049680349C4908F4EE
:1008A0007AC08091840090918500049676C08091F2
:1008B0006A01082E000C990B8C179D07C4F6E09175
:1008C0006A018E2FEE0F990BFC01EE0FFF1FE80F50
:1008D000F91FE25AFD4F808186FFC9CFE0916A017E
:1008E0008E2FEE0F990BFC01EE0FFF1FE80FF91F83
:1008F000E25AFD4F808160E08F730E94B301B7CF51
:100900002091840030918500E0916A018E2FEE0FD6
:10091000990BFC01EE0FFF1FE80FF91FE25AFD4F84
:1009200081819281820F931F909389008093880028
:10093000E0916A018E2FEE0F990BFC01EE0FFF1F65
:10094000E80FF91FE25AFD4F808186FF11C0E09148
:100950006A018E2FEE0F990BFC01EE0FFF1FE80FBF
:10096000F91FE25AFD4F808161E08F730E94B3014D
:10097000FF91EF91DF91CF91BF91AF919F918F91B7
:100980007F916F915F914F913F912F910F900FBE8B
:100990000F901F90189580E49CE9909389008093B4
:1009A00088008FEF80936A01E3CF1092C401109208
:1009B000C30188EE93E0A0E0B0E08093C50190937E
:1009C000C601A093C701B093C8018EE091E0909357
:1009D000C2018093C10185EC90E09093CE01809399
:1009E000CD0184EC90E09093D0018093CF0180EC16
:1009F00090E09093D2018093D10181EC90E09093AC
:100A0000D4018093D30182EC90E09093D60180933F
:100A1000D50186EC90E09093D8018093D701109295
:100A2000DA011092DB011092DC011092DD0180915D
:100A300082028C3048F591E0980F90938202809367
:100A4000860290E0FC01EE0FFF1FE80FF91FE25A4B
:100A5000FD4F88EB9BE092838183809182028C30F2
:100A6000B8F491E0980F909382028093830290E013
:100A7000FC01EE0FFF1FE80FF91FE25AFD4F88EB54
:100A80009BE09283818308958FEF80938602E5CF68
:100A90008FEF809383020895789484B5826084BD3B
:100AA00084B5816084BD85B5826085BD85B5816072
:100AB00085BD80916E00816080936E0010928100F0
:100AC00080918100826080938100809181008160AB
:100AD000809381008091800081608093800080916C
:100AE000B10084608093B1008091B00081608093F8
:100AF000B00080917A00846080937A0080917A00BF
:100B0000826080937A0080917A00816080937A007D
:100B100080917A00806880937A001092C100E09101
:100B2000D101F091D20182E08083E091CD01F0917A
:100B3000CE011082E091CF01F091D0018FEC808343
:100B40001092D901E091D501F091D60186E0808321
:100B5000E091D301F091D401808180618083E091A4
:100B6000D301F091D401808188608083E091D3012A
:100B7000F091D401808180688083E091D301F0916D
:100B8000D40180818F7D80838FE191E00E94E50216
:100B90008CE191E00E94E502809186028C3008F0A1
:100BA00042C089E00E94870080918602282F30E0B1
:100BB000F901EE0FFF1FE20FF31FE25AFD4F908184
:100BC000907C9960908310928702109288022CE0AA
:100BD000622F0E94E20890E0829FB001112430E071
:100BE00020E0AB01420F531FFA01EE0FFF1FE40F8D
:100BF000F51FE25AFD4F408146FD07C02F5F3F4F72
:100C00002C30310571F70E94D302E09186028E2FBD
:100C100090E0FC01EE0FFF1FE80FF91FE25AFD4FB5
:100C2000808180648083809183028C3008F042C090
:100C30008BE00E94870080918302282F30E0F90129
:100C4000EE0FFF1FE20FF31FE25AFD4F9081907CE1
:100C50009B60908310928402109285022CE0622F98
:100C60000E94E20890E0829FB001112430E020E071
:100C7000AB01420F531FFA01EE0FFF1FE40FF51FE8
:100C8000E25AFD4F408146FD07C02F5F3F4F2C3099
:100C9000310571F70E94D302E09183028E2F90E01C
:100CA000FC01EE0FFF1FE80FF91FE25AFD4F808194
:100CB0008064808388E2E82EF12C9CE3292E312C7D
:100CC00026E4422E512C30E5632E712C4AE5842E09
:100CD000912CC1E0DFE181EC91E00E9404012091C0
:100CE000C001181619064CF521112AC081EC91E0BB
:100CF0000E94E200909175019923D1F090917401C6
:100D0000E92FF0E0E058FE4F8E3351F080839F5F73
:100D1000903218F0D0937401DECF90937401DBCF42
:100D200010821092750110927401C093C001D3CF4C
:100D30008C3389F6C0937501CECF222309F4EAC023
:100D400060E871E080EA91E00E94F40862E371E0FB
:100D500080EA91E00E944B080E942D0890930901BF
:100D60008093080162E371E090E080E00E944B080C
:100D70000E942D0890937B0180937A0162E371E0D9
:100D800090E080E00E944B080E942D08909379012A
:100D90008093780162E371E090E080E00E944B086C
:100DA0000E942D08909377018093760184E391E06F
:100DB0000E94E50280917A0190917B010E94F202EB
:100DC00086E491E00E94E50280917801909179019A
:100DD0000E94F20280E591E00E94E5028091760196
:100DE000909177010E94F20283E691E00E94E50271
:100DF00080910801909109010E94F20280917A018C
:100E000090917B010E94F20280917801909179018A
:100E10000E94F20280917601909177010E94F20285
:100E2000E0917A01F0917B013697EA30F105A0F468
:100E3000E45EF84F0C94EE08260742074507480782
:100E40004D07520757075C076307630786E990E081
:100E50009093030180930201809178019091790130
:100E60008230910509F49DC08330910589F1019785
:100E7000D9F584E190E0909307018093060147E162
:100E800050E02EC08DE790E0E3CF89E690E0E0CF20
:100E90009092030180920201DFCF70920301609271
:100EA0000201DACF5092030140920201D5CF309275
:100EB000030120920201D0CF42E350E0509303019E
:100EC00040930201C9CFF0920301E0920201C4CF26
:100ED00087E090E0909307018093060145E250E09F
:100EE0005093050140930401809176019091770120
:100EF0008430910568F448EE53E0849F9001859F0B
:100F0000300D949F300D1124309301012093000186
:100F10001092C0018091080190910901019709F098
:100F20008FC0F0927F01E0927E0185E090E0909387
:100F30007D0180937C0100917E0110917F01A09042
:100F40000601B0900701C0900401D09005010A1578
:100F50001B0584F1C0917C01D0917D01CC16DD068A
:100F60004CF1B80186E892E00E945702BE0183E886
:100F700092E00E9457026091020170910301072ED6
:100F8000000C880B990B0E94240201501109109348
:100F90007F0100937E012196D0937D01C0937C0157
:100FA000CACF8FE090E090930701809306014EE155
:100FB00050E096CF64EF71E080E090E00E94240260
:100FC000B0927F01A0927E01D0927D01C0927C01FF
:100FD00000917E0110917F01093211053CF5C0910D
:100FE0007C01D0917D01C530D10504F1B80186E8BE
:100FF00092E00E945702BE0183E892E00E945702ED
:101000006091020170910301072E000C880B990B6F
:101010000E9424020F5F1F4F10937F0100937E01F7
:101020002197D0937D01C0937C01D2CF60910001C4
:1010300070910101072E000C880B990B0E9424026D
:1010400080E090E0892B09F444CE0E9410018823AF
:1010500009F430CE0E9400002DCEFC01882799278C
:10106000E89421912032E9F3293010F02E30C8F3B2
:101070002B3241F02D3239F4689404C00E94770875
:10108000820F911D219120532A30C0F31EF49095B8
:1010900081959F4F089549E852E00E9450080895B5
:1010A000FA01A191B081009719F41097E1F0CD01F8
:1010B000DC01CD010D90002011F4C00113C0FB0133
:1010C0002191222319F02015D9F7F3CFFB012191AB
:1010D000201519F41E92119606C02223C1F70D9017
:1010E0000020A1F7D001FA01A193B08308957AE01E
:1010F000979F902D879F802D910D11240895052E87
:1011000097FB1EF400940E94960857FD07D00E949A
:10111000B10807FC03D04EF40C9496085095409506
:10112000309521953F4F4F4F5F4F08959095809593
:10113000709561957F4F8F4F9F4F08950E94D30800
:10114000A59F900DB49F900DA49F800D911D11241B
:101150000895B7FF0C949E080E949E08821B930B73
:101160000895A1E21A2EAA1BBB1BFD010DC0AA1FE8
:10117000BB1FEE1FFF1FA217B307E407F50720F000
:10118000A21BB30BE40BF50B661F771F881F991F7B
:101190001A9469F760957095809590959B01AC01C4
:1011A000BD01CF010895A29FB001B39FC001A39FCD
:1011B000700D811D1124911DB29F700D811D112490
:1011C000911D0895991B79E004C0991F961708F0A6
:1011D000961B881F7A95C9F780950895EE0FFF1F1B
:1011E0000590F491E02D0994FB01DC0101900D9232
:0A11F0000020E1F70895F894FFCF06
:1011FA00F401280025000700010000000000460154
:10120A00A600D30093010401E200F6000D0A003C97
:10121A0041726475696E6F206973207265616479C1
:10122A003E002C007265737069726174696F6E5248
:10123A006174653A200074566F6C756D653A2000CA
:10124A00706175736520622F7720627265617468B8
:0A125A003A2000706F7765723A00C9
:00000001FF
